{
  "_format": "hh-sol-artifact-1",
  "contractName": "CrowdFunding",
  "sourceName": "contracts/CrowdFunding.sol",
  "abi": [
    {
      "anonymous": false,
      "inputs": [
        {
          "indexed": false,
          "internalType": "uint256",
          "name": "campaignID",
          "type": "uint256"
        },
        {
          "indexed": false,
          "internalType": "string",
          "name": "title",
          "type": "string"
        },
        {
          "indexed": false,
          "internalType": "string",
          "name": "description",
          "type": "string"
        },
        {
          "indexed": false,
          "internalType": "address",
          "name": "benefactor",
          "type": "address"
        },
        {
          "indexed": false,
          "internalType": "uint256",
          "name": "goal",
          "type": "uint256"
        },
        {
          "indexed": false,
          "internalType": "uint256",
          "name": "deadline",
          "type": "uint256"
        }
      ],
      "name": "logInfoForCampaignCreated",
      "type": "event"
    },
    {
      "anonymous": false,
      "inputs": [
        {
          "indexed": false,
          "internalType": "uint256",
          "name": "campaignId",
          "type": "uint256"
        },
        {
          "indexed": false,
          "internalType": "address",
          "name": "whoDonates",
          "type": "address"
        },
        {
          "indexed": false,
          "internalType": "uint256",
          "name": "amountDonated",
          "type": "uint256"
        }
      ],
      "name": "logInfoForConfirmationOfDonationReceived",
      "type": "event"
    },
    {
      "anonymous": false,
      "inputs": [
        {
          "indexed": false,
          "internalType": "uint256",
          "name": "campaignId",
          "type": "uint256"
        },
        {
          "indexed": false,
          "internalType": "uint256",
          "name": "amountRaised",
          "type": "uint256"
        },
        {
          "indexed": false,
          "internalType": "bool",
          "name": "isTheGoalMetForCampaign",
          "type": "bool"
        }
      ],
      "name": "logInfoUponConformationThatCampaignEnded",
      "type": "event"
    },
    {
      "inputs": [
        {
          "internalType": "string",
          "name": "_title",
          "type": "string"
        },
        {
          "internalType": "string",
          "name": "_description",
          "type": "string"
        },
        {
          "internalType": "address payable",
          "name": "_benefactor",
          "type": "address"
        },
        {
          "internalType": "uint256",
          "name": "_goal",
          "type": "uint256"
        },
        {
          "internalType": "uint256",
          "name": "duration",
          "type": "uint256"
        }
      ],
      "name": "createCampaign",
      "outputs": [],
      "stateMutability": "nonpayable",
      "type": "function"
    },
    {
      "inputs": [
        {
          "internalType": "uint256",
          "name": "campaignId",
          "type": "uint256"
        }
      ],
      "name": "donateToCampaign",
      "outputs": [],
      "stateMutability": "payable",
      "type": "function"
    },
    {
      "inputs": [
        {
          "internalType": "uint256",
          "name": "campaignId",
          "type": "uint256"
        }
      ],
      "name": "endCampaign",
      "outputs": [],
      "stateMutability": "nonpayable",
      "type": "function"
    },
    {
      "inputs": [
        {
          "internalType": "uint256",
          "name": "",
          "type": "uint256"
        }
      ],
      "name": "fundingCampaignObject",
      "outputs": [
        {
          "internalType": "string",
          "name": "title",
          "type": "string"
        },
        {
          "internalType": "string",
          "name": "description",
          "type": "string"
        },
        {
          "internalType": "address payable",
          "name": "benefactor",
          "type": "address"
        },
        {
          "internalType": "uint256",
          "name": "goal",
          "type": "uint256"
        },
        {
          "internalType": "uint256",
          "name": "deadline",
          "type": "uint256"
        },
        {
          "internalType": "uint256",
          "name": "amountRaised",
          "type": "uint256"
        },
        {
          "internalType": "bool",
          "name": "statusOfCampaign",
          "type": "bool"
        }
      ],
      "stateMutability": "view",
      "type": "function"
    },
    {
      "inputs": [],
      "name": "nounce",
      "outputs": [
        {
          "internalType": "uint256",
          "name": "",
          "type": "uint256"
        }
      ],
      "stateMutability": "view",
      "type": "function"
    }
  ],
  "bytecode": "0x608060405234801561001057600080fd5b506113fa806100206000396000f3fe60806040526004361061004a5760003560e01c806342a4fda81461004f578063616d24631461006b5780639304d12414610096578063c685f604146100bf578063dd0408ae14610102575b600080fd5b61006960048036038101906100649190610756565b61012b565b005b34801561007757600080fd5b50610080610233565b60405161008d9190610792565b60405180910390f35b3480156100a257600080fd5b506100bd60048036038101906100b89190610951565b610239565b005b3480156100cb57600080fd5b506100e660048036038101906100e19190610756565b610404565b6040516100f99796959493929190610aad565b60405180910390f35b34801561010e57600080fd5b5061012960048036038101906101249190610756565b610583565b005b6000806000838152602001908152602001600020905080600401544210610187576040517f08c379a000000000000000000000000000000000000000000000000000000000815260040161017e90610be8565b60405180910390fd5b8060060160009054906101000a900460ff16156101d9576040517f08c379a00000000000000000000000000000000000000000000000000000000081526004016101d090610cc6565b60405180910390fd5b348160050160008282546101ed9190610d15565b925050819055507fe4f0c28de352f8393cfc0df87dc06873455f7e9cd19c48622c96913afc56df3d82333460405161022793929190610d6a565b60405180910390a15050565b60015481565b6000821161027c576040517f08c379a000000000000000000000000000000000000000000000000000000000815260040161027390610e13565b60405180910390fd5b6000814261028a9190610d15565b90506040518060e001604052808781526020018681526020018573ffffffffffffffffffffffffffffffffffffffff168152602001848152602001828152602001600081526020016000151581525060008060015481526020019081526020016000206000820151816000019081610302919061103f565b506020820151816001019081610318919061103f565b5060408201518160020160006101000a81548173ffffffffffffffffffffffffffffffffffffffff021916908373ffffffffffffffffffffffffffffffffffffffff160217905550606082015181600301556080820151816004015560a0820151816005015560c08201518160060160006101000a81548160ff0219169083151502179055509050507fb26aa2d8b94652db066682803335cfac11277f7da21a86ba937f48359e5a5dec60015487878787866040516103dc96959493929190611166565b60405180910390a1600160008154809291906103f7906111d5565b9190505550505050505050565b600060205280600052604060002060009150905080600001805461042790610e62565b80601f016020809104026020016040519081016040528092919081815260200182805461045390610e62565b80156104a05780601f10610475576101008083540402835291602001916104a0565b820191906000526020600020905b81548152906001019060200180831161048357829003601f168201915b5050505050908060010180546104b590610e62565b80601f01602080910402602001604051908101604052809291908181526020018280546104e190610e62565b801561052e5780601f106105035761010080835404028352916020019161052e565b820191906000526020600020905b81548152906001019060200180831161051157829003601f168201915b5050505050908060020160009054906101000a900473ffffffffffffffffffffffffffffffffffffffff16908060030154908060040154908060050154908060060160009054906101000a900460ff16905087565b6000806000838152602001908152602001600020905080600401544210156105e0576040517f08c379a00000000000000000000000000000000000000000000000000000000081526004016105d7906112db565b60405180910390fd5b8060060160009054906101000a900460ff1615610632576040517f08c379a00000000000000000000000000000000000000000000000000000000081526004016106299061136d565b60405180910390fd5b60018160060160006101000a81548160ff0219169083151502179055508060020160009054906101000a900473ffffffffffffffffffffffffffffffffffffffff1673ffffffffffffffffffffffffffffffffffffffff166108fc82600501549081150290604051600060405180830381858888f193505050501580156106bd573d6000803e3d6000fd5b507f7de0bb0657fd5e50dd3c2fc39ef5f992be1a136cb5ba843d2af0d4372d2a06618282600501548360030154846005015410156040516107009392919061138d565b60405180910390a15050565b6000604051905090565b600080fd5b600080fd5b6000819050919050565b61073381610720565b811461073e57600080fd5b50565b6000813590506107508161072a565b92915050565b60006020828403121561076c5761076b610716565b5b600061077a84828501610741565b91505092915050565b61078c81610720565b82525050565b60006020820190506107a76000830184610783565b92915050565b600080fd5b600080fd5b6000601f19601f8301169050919050565b7f4e487b7100000000000000000000000000000000000000000000000000000000600052604160045260246000fd5b610800826107b7565b810181811067ffffffffffffffff8211171561081f5761081e6107c8565b5b80604052505050565b600061083261070c565b905061083e82826107f7565b919050565b600067ffffffffffffffff82111561085e5761085d6107c8565b5b610867826107b7565b9050602081019050919050565b82818337600083830152505050565b600061089661089184610843565b610828565b9050828152602081018484840111156108b2576108b16107b2565b5b6108bd848285610874565b509392505050565b600082601f8301126108da576108d96107ad565b5b81356108ea848260208601610883565b91505092915050565b600073ffffffffffffffffffffffffffffffffffffffff82169050919050565b600061091e826108f3565b9050919050565b61092e81610913565b811461093957600080fd5b50565b60008135905061094b81610925565b92915050565b600080600080600060a0868803121561096d5761096c610716565b5b600086013567ffffffffffffffff81111561098b5761098a61071b565b5b610997888289016108c5565b955050602086013567ffffffffffffffff8111156109b8576109b761071b565b5b6109c4888289016108c5565b94505060406109d58882890161093c565b93505060606109e688828901610741565b92505060806109f788828901610741565b9150509295509295909350565b600081519050919050565b600082825260208201905092915050565b60005b83811015610a3e578082015181840152602081019050610a23565b60008484015250505050565b6000610a5582610a04565b610a5f8185610a0f565b9350610a6f818560208601610a20565b610a78816107b7565b840191505092915050565b610a8c81610913565b82525050565b60008115159050919050565b610aa781610a92565b82525050565b600060e0820190508181036000830152610ac7818a610a4a565b90508181036020830152610adb8189610a4a565b9050610aea6040830188610a83565b610af76060830187610783565b610b046080830186610783565b610b1160a0830185610783565b610b1e60c0830184610a9e565b98975050505050505050565b7f41206c6974746c6520736c6565702c2061206c6974746c6520736c756d62657260008201527f212120556e666f7274756e6174656c792c20646f6e6174696f6e2063616e277460208201527f20626520616363657074656420626563617573652066756e64696e672043616d60408201527f706169676e2068617320656e6465642121210000000000000000000000000000606082015250565b6000610bd2607283610a0f565b9150610bdd82610b2a565b608082019050919050565b60006020820190508181036000830152610c0181610bc5565b9050919050565b7f5468657265277320616c77617973206120726f6f6d20666f72206e657874207460008201527f696d65212120596f7572204d6f6e657920697320496d706f7274616e7420746f60208201527f2074686520636f6d6d756e6974792e2042757420666f72206e6f772c2054686960408201527f732043616d706169676e2068617320656e646564212121000000000000000000606082015250565b6000610cb0607783610a0f565b9150610cbb82610c08565b608082019050919050565b60006020820190508181036000830152610cdf81610ca3565b9050919050565b7f4e487b7100000000000000000000000000000000000000000000000000000000600052601160045260246000fd5b6000610d2082610720565b9150610d2b83610720565b9250828201905080821115610d4357610d42610ce6565b5b92915050565b6000610d54826108f3565b9050919050565b610d6481610d49565b82525050565b6000606082019050610d7f6000830186610783565b610d8c6020830185610d5b565b610d996040830184610783565b949350505050565b7f53746f70204a6f6b696e67204d617465212120596f75206e65656420746f206860008201527f61766520736f6c696420676f616c730000000000000000000000000000000000602082015250565b6000610dfd602f83610a0f565b9150610e0882610da1565b604082019050919050565b60006020820190508181036000830152610e2c81610df0565b9050919050565b7f4e487b7100000000000000000000000000000000000000000000000000000000600052602260045260246000fd5b60006002820490506001821680610e7a57607f821691505b602082108103610e8d57610e8c610e33565b5b50919050565b60008190508160005260206000209050919050565b60006020601f8301049050919050565b600082821b905092915050565b600060088302610ef57fffffffffffffffffffffffffffffffffffffffffffffffffffffffffffffffff82610eb8565b610eff8683610eb8565b95508019841693508086168417925050509392505050565b6000819050919050565b6000610f3c610f37610f3284610720565b610f17565b610720565b9050919050565b6000819050919050565b610f5683610f21565b610f6a610f6282610f43565b848454610ec5565b825550505050565b600090565b610f7f610f72565b610f8a818484610f4d565b505050565b5b81811015610fae57610fa3600082610f77565b600181019050610f90565b5050565b601f821115610ff357610fc481610e93565b610fcd84610ea8565b81016020851015610fdc578190505b610ff0610fe885610ea8565b830182610f8f565b50505b505050565b600082821c905092915050565b600061101660001984600802610ff8565b1980831691505092915050565b600061102f8383611005565b9150826002028217905092915050565b61104882610a04565b67ffffffffffffffff811115611061576110606107c8565b5b61106b8254610e62565b611076828285610fb2565b600060209050601f8311600181146110a95760008415611097578287015190505b6110a18582611023565b865550611109565b601f1984166110b786610e93565b60005b828110156110df578489015182556001820191506020850194506020810190506110ba565b868310156110fc57848901516110f8601f891682611005565b8355505b6001600288020188555050505b505050505050565b600061112c611127611122846108f3565b610f17565b6108f3565b9050919050565b600061113e82611111565b9050919050565b600061115082611133565b9050919050565b61116081611145565b82525050565b600060c08201905061117b6000830189610783565b818103602083015261118d8188610a4a565b905081810360408301526111a18187610a4a565b90506111b06060830186611157565b6111bd6080830185610783565b6111ca60a0830184610783565b979650505050505050565b60006111e082610720565b91507fffffffffffffffffffffffffffffffffffffffffffffffffffffffffffffffff820361121257611211610ce6565b5b600182019050919050565b7f4561726c792062697264206973207768617420796f75206172652e205468697360008201527f2063616d706169676e206973207374696c6c206f6e20616e6420796f7572206d60208201527f6f6e65792063616e20646f206d75636820676f6f64207468616e206861726d2e60408201527f20476f20616865616420746f20646f6e61746521212100000000000000000000606082015250565b60006112c5607683610a0f565b91506112d08261121d565b608082019050919050565b600060208201905081810360008301526112f4816112b8565b9050919050565b7f417777212120546869732066756e64696e672043616d706169676e206861732060008201527f656e646564000000000000000000000000000000000000000000000000000000602082015250565b6000611357602583610a0f565b9150611362826112fb565b604082019050919050565b600060208201905081810360008301526113868161134a565b9050919050565b60006060820190506113a26000830186610783565b6113af6020830185610783565b6113bc6040830184610a9e565b94935050505056fea2646970667358221220c2d51ca3c17bc809f9484416b939ceab69a6f3eda7b435263d31b54562ba32dd64736f6c63430008180033",
  "linkReferences": {},
  "deployedLinkReferences": {}
}